{
    "_format": "hh-sol-artifact-1",
    "contractName": "Jobs",
    "sourceName": "contracts/Job.sol",
    "abi": [
        {
            "anonymous": false,
            "inputs": [
                {
                    "indexed": true,
                    "internalType": "address",
                    "name": "author",
                    "type": "address"
                },
                {
                    "indexed": false,
                    "internalType": "string",
                    "name": "description",
                    "type": "string"
                },
                {
                    "indexed": false,
                    "internalType": "uint256",
                    "name": "price",
                    "type": "uint256"
                },
                {
                    "indexed": false,
                    "internalType": "uint256",
                    "name": "id",
                    "type": "uint256"
                },
                {
                    "indexed": false,
                    "internalType": "bool",
                    "name": "isFinished",
                    "type": "bool"
                }
            ],
            "name": "jobAdded",
            "type": "event"
        },
        {
            "anonymous": false,
            "inputs": [
                {
                    "indexed": true,
                    "internalType": "address",
                    "name": "author",
                    "type": "address"
                },
                {
                    "indexed": true,
                    "internalType": "address",
                    "name": "worker",
                    "type": "address"
                },
                {
                    "indexed": false,
                    "internalType": "uint256",
                    "name": "id",
                    "type": "uint256"
                },
                {
                    "indexed": false,
                    "internalType": "uint256",
                    "name": "pricePaid",
                    "type": "uint256"
                }
            ],
            "name": "jobIsFinishedAndPaid",
            "type": "event"
        },
        {
            "anonymous": false,
            "inputs": [
                {
                    "indexed": true,
                    "internalType": "address",
                    "name": "worker",
                    "type": "address"
                },
                {
                    "indexed": false,
                    "internalType": "uint256",
                    "name": "id",
                    "type": "uint256"
                }
            ],
            "name": "jobTaken",
            "type": "event"
        },
        {
            "inputs": [
                {
                    "internalType": "string",
                    "name": "_description",
                    "type": "string"
                }
            ],
            "name": "addJob",
            "outputs": [],
            "stateMutability": "payable",
            "type": "function"
        },
        {
            "inputs": [
                {
                    "internalType": "uint256",
                    "name": "_id",
                    "type": "uint256"
                }
            ],
            "name": "setIsFinishedAndPay",
            "outputs": [],
            "stateMutability": "nonpayable",
            "type": "function"
        },
        {
            "inputs": [
                {
                    "internalType": "uint256",
                    "name": "_id",
                    "type": "uint256"
                }
            ],
            "name": "takeJob",
            "outputs": [],
            "stateMutability": "nonpayable",
            "type": "function"
        }
    ],
    "bytecode": "0x608060405234801561001057600080fd5b50611271806100206000396000f3fe6080604052600436106100345760003560e01c806375cb0ac8146100395780637e8762f7146100555780639330d9bc1461007e575b600080fd5b610053600480360381019061004e9190610987565b6100a7565b005b34801561006157600080fd5b5061007c60048036038101906100779190610a0a565b6102af565b005b34801561008a57600080fd5b506100a560048036038101906100a09190610a0a565b6106fc565b005b60006040518060a001604052803373ffffffffffffffffffffffffffffffffffffffff168152602001600073ffffffffffffffffffffffffffffffffffffffff16815260200184848080601f016020809104026020016040519081016040528093929190818152602001838380828437600081840152601f19601f820116905080830192505050505050508152602001348152602001600015158152509050600081908060018154018082558091505060019003906000526020600020906005020160009091909190915060008201518160000160006101000a81548173ffffffffffffffffffffffffffffffffffffffff021916908373ffffffffffffffffffffffffffffffffffffffff16021790555060208201518160010160006101000a81548173ffffffffffffffffffffffffffffffffffffffff021916908373ffffffffffffffffffffffffffffffffffffffff16021790555060408201518160020190816102159190610c7d565b506060820151816003015560808201518160040160006101000a81548160ff02191690831515021790555050503373ffffffffffffffffffffffffffffffffffffffff167f55f4e04c8a8ba099607e3993996c0b30c9d5ff7618c0d8d31e6e7c9ffa60c094848434600160008054905061028f9190610d7e565b60006040516102a2959493929190610e3a565b60405180910390a2505050565b600073ffffffffffffffffffffffffffffffffffffffff16600082815481106102db576102da610e88565b5b906000526020600020906005020160010160009054906101000a900473ffffffffffffffffffffffffffffffffffffffff1673ffffffffffffffffffffffffffffffffffffffff1603610363576040517f08c379a000000000000000000000000000000000000000000000000000000000815260040161035a90610f03565b60405180910390fd5b6000818154811061037757610376610e88565b5b906000526020600020906005020160000160009054906101000a900473ffffffffffffffffffffffffffffffffffffffff1673ffffffffffffffffffffffffffffffffffffffff163373ffffffffffffffffffffffffffffffffffffffff1614610416576040517f08c379a000000000000000000000000000000000000000000000000000000000815260040161040d90610f95565b60405180910390fd5b6000818154811061042a57610429610e88565b5b906000526020600020906005020160040160009054906101000a900460ff1615610489576040517f08c379a000000000000000000000000000000000000000000000000000000000815260040161048090611027565b60405180910390fd5b600080828154811061049e5761049d610e88565b5b906000526020600020906005020160010160009054906101000a900473ffffffffffffffffffffffffffffffffffffffff1673ffffffffffffffffffffffffffffffffffffffff16600083815481106104fa576104f9610e88565b5b90600052602060002090600502016003015460405161051890611078565b60006040518083038185875af1925050503d8060008114610555576040519150601f19603f3d011682016040523d82523d6000602084013e61055a565b606091505b5050905080156105a75760016000838154811061057a57610579610e88565b5b906000526020600020906005020160040160006101000a81548160ff0219169083151502179055506105e2565b6040517f08c379a00000000000000000000000000000000000000000000000000000000081526004016105d9906110ff565b60405180910390fd5b600082815481106105f6576105f5610e88565b5b906000526020600020906005020160010160009054906101000a900473ffffffffffffffffffffffffffffffffffffffff1673ffffffffffffffffffffffffffffffffffffffff166000838154811061065257610651610e88565b5b906000526020600020906005020160000160009054906101000a900473ffffffffffffffffffffffffffffffffffffffff1673ffffffffffffffffffffffffffffffffffffffff167fc9f82f3ab594a0fe3b2a0a3544eb95e67e50437ea6c05bbfeb8414bf42b259fa84600086815481106106d0576106cf610e88565b5b9060005260206000209060050201600301546040516106f092919061111f565b60405180910390a35050565b600081815481106107105761070f610e88565b5b906000526020600020906005020160000160009054906101000a900473ffffffffffffffffffffffffffffffffffffffff1673ffffffffffffffffffffffffffffffffffffffff163373ffffffffffffffffffffffffffffffffffffffff16036107af576040517f08c379a00000000000000000000000000000000000000000000000000000000081526004016107a690611194565b60405180910390fd5b600073ffffffffffffffffffffffffffffffffffffffff16600082815481106107db576107da610e88565b5b906000526020600020906005020160010160009054906101000a900473ffffffffffffffffffffffffffffffffffffffff1673ffffffffffffffffffffffffffffffffffffffff1614610863576040517f08c379a000000000000000000000000000000000000000000000000000000000815260040161085a90611200565b60405180910390fd5b336000828154811061087857610877610e88565b5b906000526020600020906005020160010160006101000a81548173ffffffffffffffffffffffffffffffffffffffff021916908373ffffffffffffffffffffffffffffffffffffffff1602179055503373ffffffffffffffffffffffffffffffffffffffff167f570fece144bab0037b8b44f5dc22ce6feffce4bae7b0eaf3de66f0730ee244748260405161090d9190611220565b60405180910390a250565b600080fd5b600080fd5b600080fd5b600080fd5b600080fd5b60008083601f84011261094757610946610922565b5b8235905067ffffffffffffffff81111561096457610963610927565b5b6020830191508360018202830111156109805761097f61092c565b5b9250929050565b6000806020838503121561099e5761099d610918565b5b600083013567ffffffffffffffff8111156109bc576109bb61091d565b5b6109c885828601610931565b92509250509250929050565b6000819050919050565b6109e7816109d4565b81146109f257600080fd5b50565b600081359050610a04816109de565b92915050565b600060208284031215610a2057610a1f610918565b5b6000610a2e848285016109f5565b91505092915050565b600081519050919050565b7f4e487b7100000000000000000000000000000000000000000000000000000000600052604160045260246000fd5b7f4e487b7100000000000000000000000000000000000000000000000000000000600052602260045260246000fd5b60006002820490506001821680610ab857607f821691505b602082108103610acb57610aca610a71565b5b50919050565b60008190508160005260206000209050919050565b60006020601f8301049050919050565b600082821b905092915050565b600060088302610b337fffffffffffffffffffffffffffffffffffffffffffffffffffffffffffffffff82610af6565b610b3d8683610af6565b95508019841693508086168417925050509392505050565b6000819050919050565b6000610b7a610b75610b70846109d4565b610b55565b6109d4565b9050919050565b6000819050919050565b610b9483610b5f565b610ba8610ba082610b81565b848454610b03565b825550505050565b600090565b610bbd610bb0565b610bc8818484610b8b565b505050565b5b81811015610bec57610be1600082610bb5565b600181019050610bce565b5050565b601f821115610c3157610c0281610ad1565b610c0b84610ae6565b81016020851015610c1a578190505b610c2e610c2685610ae6565b830182610bcd565b50505b505050565b600082821c905092915050565b6000610c5460001984600802610c36565b1980831691505092915050565b6000610c6d8383610c43565b9150826002028217905092915050565b610c8682610a37565b67ffffffffffffffff811115610c9f57610c9e610a42565b5b610ca98254610aa0565b610cb4828285610bf0565b600060209050601f831160018114610ce75760008415610cd5578287015190505b610cdf8582610c61565b865550610d47565b601f198416610cf586610ad1565b60005b82811015610d1d57848901518255600182019150602085019450602081019050610cf8565b86831015610d3a5784890151610d36601f891682610c43565b8355505b6001600288020188555050505b505050505050565b7f4e487b7100000000000000000000000000000000000000000000000000000000600052601160045260246000fd5b6000610d89826109d4565b9150610d94836109d4565b9250828203905081811115610dac57610dab610d4f565b5b92915050565b600082825260208201905092915050565b82818337600083830152505050565b6000601f19601f8301169050919050565b6000610def8385610db2565b9350610dfc838584610dc3565b610e0583610dd2565b840190509392505050565b610e19816109d4565b82525050565b60008115159050919050565b610e3481610e1f565b82525050565b60006080820190508181036000830152610e55818789610de3565b9050610e646020830186610e10565b610e716040830185610e10565b610e7e6060830184610e2b565b9695505050505050565b7f4e487b7100000000000000000000000000000000000000000000000000000000600052603260045260246000fd5b7f4a6f62206e6f742074616b656e20796574000000000000000000000000000000600082015250565b6000610eed601183610db2565b9150610ef882610eb7565b602082019050919050565b60006020820190508181036000830152610f1c81610ee0565b9050919050565b7f596f7520617265206e6f742074686520617574686f72206f662074686973206a60008201527f6f62000000000000000000000000000000000000000000000000000000000000602082015250565b6000610f7f602283610db2565b9150610f8a82610f23565b604082019050919050565b60006020820190508181036000830152610fae81610f72565b9050919050565b7f54686973206a6f6220697320616c72656164792066696e697368656420616e6460008201527f2070616964000000000000000000000000000000000000000000000000000000602082015250565b6000611011602583610db2565b915061101c82610fb5565b604082019050919050565b6000602082019050818103600083015261104081611004565b9050919050565b600081905092915050565b50565b6000611062600083611047565b915061106d82611052565b600082019050919050565b600061108382611055565b9150819050919050565b7f54686520776f726b657220686173206e6f74206265656e20706169642c20726560008201527f76657274696e6720746865207472616e73616374696f6e2e2e2e000000000000602082015250565b60006110e9603a83610db2565b91506110f48261108d565b604082019050919050565b60006020820190508181036000830152611118816110dc565b9050919050565b60006040820190506111346000830185610e10565b6111416020830184610e10565b9392505050565b7f54686520617574686f722063616e6e6f742074616b6520746865206a6f620000600082015250565b600061117e601e83610db2565b915061118982611148565b602082019050919050565b600060208201905081810360008301526111ad81611171565b9050919050565b7f4a6f6220616c72656164792074616b656e000000000000000000000000000000600082015250565b60006111ea601183610db2565b91506111f5826111b4565b602082019050919050565b60006020820190508181036000830152611219816111dd565b9050919050565b60006020820190506112356000830184610e10565b9291505056fea2646970667358221220d652c5e5a093bb3c73f9c7c591fc83ceb032add727dbc2fe2c1f274283ea1aad64736f6c63430008110033",
    "linkReferences": {},
    "deployedLinkReferences": {}
}